S02B00002F55736572732F6C69616D73656C662F656D6265646465642D73797374656D732F6377322F576172E5
S113000000060020E90400001105000011050000AD
S113001000000000000000000000000000000000DC
S113002000000000000000000000000011050000B6
S11300300000000000000000110500001105000090
S11300401105000011050000110500001105000054
S11300501105000011050000110500001105000044
S1130060A526000011050000AF26000011050000C0
S11300701105000011050000110500001105000024
S11300801105000011050000110500001105000014
S1130090AD060000C50600001105000011050000B2
S11300A011050000110500001105000011050000F4
S11300B011050000110500001105000011050000E4
S1130400FFFFFFFFFFFFFFFFFFFFFFFFFE3DFFFFBB
S113041010B5064C2378002B07D1054B002B02D0D6
S1130420044800E000BF0123237010BDA8FFFF1F94
S113043000000000FC5D000008B5084B002B03D051
S11304400748084900E000BF07480368002B03D0B1
S1130450064B002B00D0984708BDC04600000000A2
S1130460FC5D0000ACFFFF1FA4FFFF1F00000000A5
S1130470164B002B00D1144B9D46402292029A1A2F
S1130480924600218B460F461348144A121A04F070
S1130490E0F80F4B002B00D098470E4B002B00D0F8
S11304A098470020002104000D000D48002802D0C8
S11304B00C4800E000BF04F09DF82000290000F083
S11304C0A5FD04F081F8C0460000080000060020E5
S11304D00000000000000000A8FFFF1F50020020E1
S11304E0000000000000000072B606480649074AF2
S11304F002600A6002F0E0F802F020F962B6FFF749
S1130500B7FF000080E100E080E200E0FFFFFFFFB2
S1130510004800471105000002B47146490849002B
S1130520095C49008E4402BC7047C046002934D09F
S11305300123002210B488422CD301242407A142B1
S113054004D2814202D209011B01F8E7E400A1426E
S113055004D2814202D249005B00F8E7884201D309
S1130560401A1A434C08A04202D3001B5C082243E1
S11305708C08A04202D3001B9C082243CC08A04252
S113058002D3001BDC082243002803D01B0901D03E
S11305900909E3E7101C10BC7047002801D00020B3
S11305A0C04307B4024802A14018029003BDC046EC
S11305B0D90000000029F0D003B5FFF7B9FF0EBC45
S11305C04243891A1847C046002941D010B4041C7C
S11305D04C40A44601230022002900D549420028AA
S11305E000D5404288422CD301242407A14204D2DE
S11305F0814202D209011B01F8E7E400A14204D2BE
S1130600814202D249005B00F8E7884201D3401AD4
S11306101A434C08A04202D3001B5C0822438C08F6
S1130620A04202D3001B9C082243CC08A04202D360
S1130630001BDC082243002803D01B0901D0090950
S1130640E3E7101C6446002C00D5404210BC704700
S1130650002806D003DB0020C043400801E08020CE
S1130660000607B4024802A14018029003BDC04628
S1130670190000000029EBD003B5FFF7A7FF0EBC5B
S11306804243891A1847C0467047C04683780220FF
S11306909842804140427047437A0020013B012B3D
S11306A003D90B78012001330B70704708B5002083
S11306B003F0D0FB002803D00020011C03F0BEFB94
S11306C008BD0000024B1A6801321A607047C04628
S11306D00000002037B5002002F0B8FA0E4AC0230B
S11306E09B0013600D4A0E4C13600E4A00251360E4
S11306F00D4B25716571A5711A68FA239B0053434C
S1130700281C0A49236003F0F5FB281C211C01AABC
S113071003F056FC37BDC046189014541C90145472
S1130720F8FFFF1F00A0145418FEFF1F0400002050
S113073010B5002003F020FC80240A4B64001C60E8
S1130740094B07201C60094B1C6002F017FD0620B2
S113075002F014FD201C02F011FD002002F07BFACF
S113076010BDC046189014541C90145400A0145486
S113077008B5002002F074FA054A80239B00136038
S1130780044A00201360044902F0D8FD08BDC046A5
S11307900CA0145410A01454C4FFFF1F08B500206B
S11307A002F008FE084A80235B001360074A822097
S11307B01360400002F0E2FC0420FF3002F0DEFC93
S11307C0002002F052FA08BD0CA0145410A01454D6
S11307D0364A08B500231360354A01211360354AAF
S11307E080235B001360344A1360344A1360344A34
S11307F01360344A1360344A1360344A1360344A31
S113080010780140101C334A002901D0136000E025
S11308101160314A3149136000220A6030490A608C
S1130820304A1360304A1360304A1360304A136010
S1130830304A1360304A13600378DA0703D5022084
S1130840FF3002F08DFC092002F098FC0C2002F02D
S113085095FC052002F092FC082002F08FFC062093
S1130860FF3002F08BFC0E20FF3002F087FC832067
S1130870400002F083FC0820FF3002F07FFC0C20D3
S1130880FF3002F06DFC8220400002F077FC04206F
S1130890FF3002F073FC072002F070FC062002F027
S11308A06DFC8020400002F069FC08BD0C901454DB
S11308B01090145414901454189014541C901454FC
S11308C020901454249014543090145400A01454C0
S11308D010FEFF1F04A0145408A014540CA01454B8
S11308E010A0145414A0145418A014541CA014548C
S11308F028A014542CA0145434A0145408B509206E
S113090002F03CFC08BD08B50C2002F037FC08BD21
S113091008B53A4B98425DD016D8394B984247D027
S113092009D8384B984234D0FA23DB0098423BD0A4
S1130930E123DB0014E0344B984240D096231B01A2
S1130940984243D0314B16E0314B984230D00DD809
S1130950304B98421DD0AF231B01984224D02E4B1C
S1130960984242D1052002F009FC15E02B4B984235
S113097025D006D82A4B984237D1052002F0FEFB39
S113098020E0C8231B01984220D0264B984221D056
S11309902BE0052002F0E4FB082002F0EFFB062028
S11309A0FF3002F0EBFB24E0052002F0E7FB02E05D
S11309B0052002F0D5FB082002F0D2FBEFE705206A
S11309C002F0CEFB082002F0D9FB09E0052002F07A
S11309D0D5FB02E0052002F0C3FB082002F0C0FBB7
S11309E00620FF3002F0BCFB03E000200E4901F0BA
S11309F04CFE0E4B186801F066FF08BDC4090000E8
S1130A00340800006C070000FC080000980800008F
S1130A10540B00008C0A0000280A00001C0C000083
S1130A20B80B0000E40C0000844600000CFEFF1F1D
S1130A3008B5FFF76DFF092002F092FB0C2002F0CD
S1130A409DFB8320400002F099FB08BD08B5FFF729
S1130A505FFF092002F092FB0C2002F081FB83204F
S1130A60400002F07DFB08BD021C0D4808B51118BA
S1130A70AF2389B29B00994203D8101CFFF7D8FF1B
S1130A800CE00848111889B2994203D8101CFFF7EA
S1130A90DDFF03E00020044901F0F7FD08BDC04676
S1130AA0F8F8FFFFD8F5FFFFB146000008B5FFF7DF
S1130AB025FFFFF728FF8320400002F051FB024B83
S1130AC0186801F000FF08BD0CFEFF1F10B5041CE0
S1130AD0002901D0FFF77CFE0021022001F04CF830
S1130AE0211C042001F048F810BD08B501200021A4
S1130AF0FFF7ECFF3C200121FFF7E8FFF6E70000D9
S1130B00F0B585B00391041C161C00209AB2012193
S1130B1001F0CFF8071C002C1CD01C49002001F068
S1130B20A9FB1B4C206801F0CEFE1A49002001F0FD
S1130B30A1FB206801F0C7FE1749002001F09AFBD1
S1130B40206801F0C0FE0020144901F093FB2068E6
S1130B5001F0B9FE0025124C124923686268002096
S1130B6000922A1C01F091FD039801F0E1F822683B
S1130B70002063680C49009701F087FD002E02DD18
S1130B80301C01F0A0FE0135E5E7C046E94600004F
S1130B9000FEFF1F1147000033470000AF5600005E
S1130BA000D003405847000064470000F0B591B0FE
S1130BB0059218AA12781D1C0A921CAA127816AB68
S1130BC00E921DAA12881F7808926A465932D27F63
S1130BD017AB09921FAA12881B780F9220AA1278C9
S1130BE0041C0D910B92BB4203D30A998F4200D986
S1130BF01F1C002D03D1059A002A07D102E0059B92
S1130C00002B03D00020544901F03FFD0898FFF762
S1130C102BFF211C002001F02DFB0021089C0291D8
S1130C2004910691039100220792199A079B9A4214
S1130C3069DB00261A9B9E4261DABB19D8B20121F6
S1130C400D9A0C939047002838D1039B08990133DF
S1130C5003938C4204D9643CA4B2201CFFF704FF24
S1130C60002D16D0099AAB7B0499D31A5A425341EA
S1130C700B9AC9180491002A39D02B7B687BA97B75
S1130C8000900191DBB2F2193449002001F0FDFC1F
S1130C902DE00599099A0B7A0499D31A5A425341C3
S1130CA00B9AC9180491002A21D00599F2190B7ADC
S1130CB0281CDBB22A4901F0E8FC18E0022810D114
S1130CC00C9A0020274901F0E0FC069A0F9B0132A0
S1130CD006929C420BD26434A4B2201CFFF7C4FEDB
S1130CE005E00299033843424341C91802911B9A13
S1130CF0002A02DD101C01F0E6FD01369AE707998F
S1130D000131079191E70E9900291ED1039A0699A2
S1130D1000205318144901F0B8FC322001F0D3FD2F
S1130D20099A039B00921149049A002001F0ADFC3A
S1130D30322001F0C8FD0E49029A002001F0A5FC02
S1130D40322001F0C0FD11B0F0BD7B1CDFB20A9B64
S1130D509F4200D867E7D9E7844600007147000046
S1130D6096470000AB470000BE470000D64700008E
S1130D7007480000F0B591B01E1C16AB0F1C02CB47
S1130D80041C1B780D931AAB1D881BAB1B880E9398
S1130D901CAB1B780F93002810D0101CFFF7E8FC45
S1130DA0601E112856D8FFF7B7FB0D26292C2F55A6
S1130DB03235383B3E41444A47554D502A4901F0AB
S1130DC059FA4EE0312216990292199A049103922B
S1130DD00F99189A089105920D990E9A0023099279
S1130DE00A91009701930696079520482049214AC5
S1130DF0FFF7DCFE33E000201F4928E000201F49F4
S1130E0025E000201E4922E000201E491FE00020AA
S1130E101D491CE000201D4919E000201C4916E072
S1130E2000201C4913E000201B4910E000201B494E
S1130E300DE000201A490AE000201A4907E00020CA
S1130E40194904E00020194901E01949002001F082
S1130E5011FA04E000201749221C01F016FCFFF7E8
S1130E609DFC11B0F0BDC0461C480000484800007D
S1130E70D11C0000E8FFFF1F564800008148000015
S1130E80B2480000E2480000124900003F49000057
S1130E906C49000098490000C6490000F24900006E
S1130EA01F4A00004B4A0000774A0000A44A000091
S1130EB0D04A0000FC4A0000031C303809280BD932
S1130EC01A1C613A2738052A06D91A1C413A00200F
S1130ED0052A01D8181C3738704770B501F0E5F9B8
S1130EE0051C01F0E2F9FF24061C281C2040FFF732
S1130EF0E3FF051C301C2040FFF7DEFF2D012818FE
S1130F00C0B270BD70B501F0D0F9061C01F0CDF986
S1130F10051C01F0CAF9041C01F0C7F9FF231E40A7
S1130F20FA2292001D40303E56431C406422303D5C
S1130F305543303C0A225443751903402C19303B65
S1130F40E01870BD70B588B0151C0CAA16780C4A50
S1130F500C1C126806A94A6004AA1570094D088081
S1130F602D6805A80670009001930295231C0020AB
S1130F7002F050FB431E9841400008B070BDC046CB
S1130F8014FEFF1F08FEFF1FF7B5CB1DDB08DB00B7
S1130F906A46D21A02AF9546061C0C1CFFF79AFB50
S1130FA0FA2302AD9B000020321C00940193011C23
S1130FB02B1C03F063F8041C631E9C41FFF7B8FB71
S1130FC0BD46A000F2BD000008B50020014901F0B3
S1130FD051F908BD4E4B000010B5094C0020211CEE
S1130FE001F048F9211C002001F044F905490020D2
S1130FF001F040F90449002001F03CF910BDC0465D
S11310007A4B0000AA4B0000DB4B0000F0B5B9B0EE
S113101025AE301C0021072203F01BFB15A819AADA
S11310202F9017A932921BAB1DA823AA309133939A
S113103034902CAB1FA937920320FD4A012421AF21
S113104018713591002011A92E912C9214933470AB
S11310503196369701F0F2FD201C01F0EFFDF54BBF
S1131060802212021A6001F04BFC0020021C031CB7
S1131070011C009401F020F9EF49002001F0FAF876
S1131080C82001F020FCED49002001F0F3F8C8204D
S113109001F019FCEA49002001F0ECF8C82001F045
S11310A012FCE84A231C0221E74801F04DFC211CF4
S11310B0201C01F055FC002002F008FE0025FC2352
S11310C029A9DB00281C0B804C808C80CD800D81ED
S11310D08D7202F029FE291C221C11A803F0B9FA12
S11310E025981AAB1990B28819A91A80B3796A267F
S11310F06E44337003260E7072261CA96E441B9036
S11311000A80337005211BAE31705A2616A96E442D
S113111015900A80337015A902260E70622618A94C
S11311206E4417900A80337017A904260E707A2132
S11311301EAE69441D9032800B7008261DA90E70E6
S1131140822120AE69441F9032800B701FAE0921AA
S113115031702190BB7123A80A23BA803B7014AA72
S1131160231C05702FA801F0C9FD291C022000F0E2
S113117003FDB649B64801F0D7FFFFF729FB082065
S1131180FF3001F0EDFFC82001F09DFB0820FF3087
S113119001F0F4FFC82001F096FB0820FF3001F0B5
S11311A0DFFFC82001F08FFB0820FF3001F0E6FFCD
S11311B0C82001F088FB0820FF3001F0D1FFC820CF
S11311C001F081FB0820FF30802601F0D7FF3602B2
S11311D01D20A04900F068FDFFF768FC00F040FE08
S11311E00A9609950B950C9503260D969A490020AD
S11311F001F040F8994C9A4F206801F064FB99493A
S1131200002001F037F8206801F05DFB9649099A47
S11312100B9B002001F039FA206801F054FB934D38
S1131220934E94482A680A993368006801910090A3
S11312309149002001F029FA206801F044FB8F4B0A
S11312408F48C2587B693968002000918D4901F0AC
S11312501CFA206801F037FB8B4B8B481A785B78BB
S11312608179D2B2DBB200910020884901F00DFAF5
S1131270206801F028FB844900200A7A0B7E844907
S1131280D2B20978DBB20091824901F0FEF92068FC
S113129001F019FB804B81491A785B780969D2B255
S11312A0DBB2009100207E4901F0EFF9206801F0E3
S11312B00AFB7C4B72489A787B4BD2B2C3587F6846
S11312C07A490097002001F0E0F9206801F0FBFA68
S11312D0774B78491A6811AB1B78002001F0D5F9D7
S11312E0206801F0F0FA7449002000F0C3FF206880
S11312F001F0E9FA7149002000F0BCFF206801F018
S1131300E2FA6F49002000F0B5FF206801F0DBFA33
S11313106C49002000F0AEFF206801F0D4FA6A495D
S1131320002000F0A7FF206801F0CDFA67490020F3
S113133000F0A0FF206801F0C6FA6549002000F023
S113134099FF206801F0BFFA6249002000F092FF83
S1131350206801F0B8FA6049002000F08BFF206893
S113136001F0B1FA5D49002000F084FF206801F02B
S1131370AAFA0B9A0D9B5A49002001F086F92068BD
S113138001F0A1FA5749002000F074FF206801F031
S11313909AFA5549002000F06DFF206801F093FA95
S11313A05249002000F066FF206801F08CFA504991
S11313B0002000F05FFF206801F085FA4D4900200D
S11313C000F058FF206801F07EFA4B49002000F03D
S11313D051FF206801F077FA4849002000F04AFFE5
S11313E0206801F070FA4649002000F043FF2068AD
S11313F001F069FA4349002000F03CFF206801F045
S113140062FA4149002000F035FF206801F05BFAE0
S11314103E49002000F02EFF206801F054FA3C49B8
S1131420002000F027FF206801F04DFA72E0C0466A
S113143099060000440200200D4C0000284C0000D6
S11314402E4C000028FEFF1F2CFFFF1F3CFEFF1F39
S11314502CFEFF1FE8FFFF1F354C000000FEFF1F9E
S113146000D00340594C00008B4C000014FEFF1FB9
S113147018FEFF1F04FEFF1FBF4C00003C100000BD
S113148000700440F74C0000004006402D4D000061
S1131490005006405C4D000000E0074000ED00E015
S11314A08C4D000000D0074034100000C64D0000F1
S11314B000000020FE4D00002C4E0000364E0000BF
S11314C0534E00006F4E00008B4E0000A84E0000EB
S11314D0CF4E0000EE4E00000D4F0000384F0000CC
S11314E05B4F00008A4F0000A64F0000CA4F000067
S11314F0EE4F00000850000023500000415000004F
S11315005E5000007D5000009C500000B65000006A
S1131510E1500000D549002000F0ACFE206801F045
S1131520D2F900F0C2FEFF27021C08903A406B2A51
S113153000D14DE200DD93E0652A00D18AE11CDC94
S1131540622A00D164E106DC0A2A00D1B9E2612AE8
S113155000D1CFE0BBE2632A00D16AE1642A00D063
S1131560B5E2C349002000F085FEFFF7CBFCC14E75
S1131570C149306032680020ABE2682A00D113E22E
S113158011DC662A00D1CFE1672A00D09FE2BB4973
S1131590002000F06FFEFFF7B5FC86B20996321CFE
S11315A00020B74995E2692A00D105E26A2A00D0F1
S11315B08DE20B9AB349002001F067F800F075FE44
S11315C0B149071C002000F055FE00F06EFEAF4943
S11315D00890002000F04EFE00F067FEAC490E902B
S11315E0002000F047FEFFF78DFCAA49051C0020EF
S11315F000F040FEFFF786FCA749041C002000F021
S113160039FEFFF77FFCA5490F90002000F032FE61
S1131610FFF763FC061C0A980B9B01900D9A00943B
S113162002959F49002001F030F80A99303FCAB270
S113163008997B1E9F41303900910E99FBB23039D5
S1131640481E81410998019104900F98029581B236
S11316500591039406960D980B99FFF78BFBC5E54E
S1131660722A00D105E20CDC6E2A00D1F8E100DA1E
S1131670B4E16F2A00D1F8E10220702A00D1F9E127
S113168025E2752A00D102E206DC732A00D1F6E1D4
S1131690742A00D1AAE51AE2782A00D107E27A2A4C
S11316A000D014E27F49002000F0E4FD0A9EF0B26D
S11316B0FFF75EF87C49002000F0DCFD00F0F5FD4A
S11316C07A49061C002000F0D5FDFFF71BFC85B20B
S11316D077492A1C002000F0D8FF206801F0F3F8B5
S11316E0F1B268394E427141C9B201202A1C0A9BE9
S11316F0FFF706FA6F49002000F0BCFD6E49002098
S113170000F0B8FD206801F0DEF86C49002000F01C
S1131710B1FD6B49002000F0ADFD6A49002000F0E6
S1131720A9FD206801F0CFF86749002000F0A2FD70
S1131730206801F0C8F86549002000F09BFD20688E
S113174001F0C1F86249002000F094FD206801F026
S1131750BAF86049002000F08DFD206801F0B3F86C
S11317605D49002000F086FD206801F0ACF85B497B
S1131770002000F07FFD206801F0A5F85849002002
S113178000F078FD206801F09EF85649002000F032
S113179071FD206801F097F85349002000F06AFDBC
S11317A0206801F090F85149002000F063FD2068A2
S11317B001F089F84E49002000F05CFD206801F03A
S11317C082F84C49002000F055FD206801F07BF8B8
S11317D04949002000F04EFD206801F074F84749A3
S11317E0002000F047FD206801F06DF84449002016
S11317F000F040FD206801F066F800F056FD021C80
S11318003A40352A00D062E13E4E0C960126ECE4C3
S11318103D49002000F02EFDFFF774FB28602A6884
S11318203A4B9A4201D13A4B2B602A68002039493D
S11318304FE13949002000F01DFDFFF763FB3060E4
S11318403268324B9A4201D1314B33603268002006
S113185032493EE13249002000F00CFDFFF73DFB28
S11318600B90304900200B9A33E1C046015100002F
S11318701B56000004FEFF1F4A5600006B57000071
S113188097570000405800007A580000A358000001
S1131890BC580000FB580000275900005F590000A5
S11318A0905900005E5B0000775B0000A05B0000C5
S11318B0E85B0000145100001F5100005D5100005E
S11318C09F510000E05100002052000050520000DF
S11318D08D520000CC5200000A5300004753000010
S11318E085530000C2530000015400003E54000020
S11318F067540000A4540000DB5400001855000095
S113190055550000E8FFFF1F855500000F27000014
S113191010270000B3550000D35500000156000005
S1131920655600009B5600006C49002000F0A2FCA4
S1131930FFF7D3FA6A4C061C321C211C002000F06D
S1131940A4FE6849002000F095FCFFF7C6FA12AF28
S1131950021C3870211C002000F097FE992E02D141
S113196000206149AFE02D6827AC099826802895AE
S1131970FFF77AF80A9EF0B2FEF7FAFE5B4B0B9E75
S11319801B6813AA16700293012300970193002089
S1131990211C01F03FFE021E03D00020544900F038
S11319A074FEFEF7FBFE21E45249002000F062FCC5
S11319B00120FFF711FB19E44F49002000F05AFC05
S11319C0FFF7A0FA86B20A96321C00204B4980E049
S11319D04B49002000F04EFCFFF787F845490020F2
S11319E000F048FC4749002000F044FCFFF775FA7A
S11319F027AD45492870002000F03CFCFFF782FA2F
S1131A000899041CCEB22B786C2E17D10A9E0020A4
S1131A100096099E3D490196221C00F036FE0025E1
S1131A20A54201DBFFF7E2FB27AB1A780023009302
S1131A30FF200121FFF786FA0135F1E7099E002016
S1131A4000963349221C00F020FE0025A54201DB4C
S1131A50FFF7CCFB27A80121FFF796FA0135F5E73C
S1131A600998FFF701F8FFF7C1FBFFF71FF8FFF72D
S1131A70BDFB0820002100F07FF8FFF7B7FB1D49EC
S1131A80002000F0F7FBFFF79FFAFFF7AFFB0C9E77
S1131A90002E02D1301C1F4915E01F49002000F020
S1131AA0E9FBFFF71AFA0C9E3070FFF79FFB1B4906
S1131AB0002000F0DFFB1A4800F005FF0020194960
S1131AC001E01949002000F0D5FBFFF78FFB17490F
S1131AD0002000F0DAFDFFF789FBC046B256000093
S1131AE0E5560000FB5600002457000008FEFF1FC7
S1131AF04A570000B9570000E75700002358000078
S1131B00CD590000F05900000F5A00002F5A000070
S1131B10815A0000BF5A0000FD5A0000355B0000E6
S1131B2010270000545B0000205C00006955000091
S1131B301FB5041C01A9002002F01EF901A8694682
S1131B4002F058F8009B68461C1901A9009401F0A2
S1131B50D9FF01A90122002002F03AF91FBD0000BB
S1131B60034B00221A60034B80221206DA67704787
S1131B7000A01C5804E100E010B50A230C1C08283E
S1131B806ED8FEF7C9FC051B283C48626466570002
S1131B9001F048FA0523012862D0FFF7E1FF201C79
S1131BA0FFF7C6FF0020011C01F0CAF8041C002046
S1131BB0012100F0D5FE002C4FD150E001F032FAA3
S1131BC0062301284CD0FFF7CBFF201CFFF7B0FF02
S1131BD001200021E8E701F025FA082301283FD07D
S1131BE000F032FF002803D00020012100F0B8FEED
S1131BF00220002101F0A4F800282ED12FE001F0EA
S1131C0011FA072300282BD0FFF7AAFF201CFFF7A7
S1131C108FFF032005E0FFF7A3FF201CFFF788FFD9
S1131C200420002101F08CF8041C01F0FBF90028C9
S1131C30C1D1BDE70820002101F082F800280CD1B1
S1131C400120011C00F08CFE09E0052002E00620C2
S1131C5000E00720002101F073F8092300E00023CD
S1131C60181C10BD10B50D4B88B01B780C1C06A9B0
S1131C700B800B4B05AA1B6810700A484B60006868
S1131C8004AB1C700093012302900193002001F027
S1131C90C1FC431E9841400008B010BDE8FFFF1F7F
S1131CA014FEFF1F08FEFF1FC223FF3308704B60A2
S1131CB0704738B5031C0D1C0920191CFFF7D2FF0F
S1131CC0291C041C2A20FFF7CDFF0443E0B238BDD1
S1131CD030B589B005AAFF231370182804D8092841
S1131CE006D206281BD803E0031C1D3B142B16D870
S1131CF00C4C06AB257810701D800B480B4D083436
S1131D002D68006801910290191C009401230020A1
S1131D10079501F08CFC431E9841400000E003202D
S1131D2009B030BDE8FFFF1F08FEFF1F14FEFF1FB0
S1131D3038B50221041C0120FFF7CAFF304D2A7A6E
S1131D406B7AD2B2DBB2002804D02E49002000F016
S1131D5091FA11E0002C03D02B4900F096FC0BE023
S1131D609B0892011A4380239B015A40274B201C55
S1131D70D218274900F089FC03200221FFF7A8FFAD
S1131D802A7A6B7AD2B2DBB2002804D01D49002033
S1131D9000F070FA11E0002C03D01B4900F075FC30
S1131DA00BE09B0892011A4380239B015A40174B76
S1131DB0201CD218164900F068FC05200221FFF708
S1131DC087FF2A7A6B7AD2B2DBB2002804D00D499D
S1131DD0002000F04FFA11E0002C03D00A4900F073
S1131DE054FC0BE09B0892011A4380239B015A4048
S1131DF0064B201CD218064900F047FC38BDC046EB
S1131E00E8FFFF1F525C0000595C000000E0FFFF88
S1131E105F47000037B50E24FF34051C201C01F079
S1131E209FF90A2000F04FFD201C01F0A7F90C20B7
S1131E3001F0A4F9084A012315700093FA239B00CA
S1131E4000200193011C054B02F018F9051C201C0D
S1131E5001F086F9281C3EBD540000203400002007
S1131E606E4AC0239B0010B513606D4A8024136032
S1131E70FEF730FC6B4B64001C606B4B201C1C6039
S1131E806A4B1C6001F06CF9642000F01CFD201CFE
S1131E9001F074F9642000F016FD201C01F060F9D3
S1131EA0642000F010FDAE20FFF7B4FFA020FFF780
S1131EB0B1FF7220FFF7AEFFA120FFF7ABFF0020B8
S1131EC0FFF7A8FFA220FFF7A5FF0020FFF7A2FF5E
S1131ED0A420FFF79FFFA820FFF79CFF3F20FFF7F8
S1131EE099FFAD20FFF796FF8E20FFF793FFB020F8
S1131EF0FFF790FF0B20FFF78DFFB120FFF78AFF5C
S1131F003120FFF787FFB320FFF784FFF020FFF7AE
S1131F1081FF8A20FFF77EFF6420FFF77BFF8B2081
S1131F20FFF778FF7820FFF775FF8A20FFF772FF2D
S1131F306420FFF76FFFBB20FFF76CFF3A20FFF729
S1131F4069FFBE20FFF766FF3E20FFF763FF87208F
S1131F50FFF760FF0620FFF75DFF8120FFF75AFFC0
S1131F609120FFF757FF8220FFF754FF5020FFF71F
S1131F7051FF8320FFF74EFF7D20FFF74BFFAF207B
S1131F80FFF748FF2620FFF745FF0120FFF742FF38
S1131F902520FFF73FFF0020FFF73CFF0020FFF75D
S1131FA039FF5F20FFF736FF3F20FFF733FF20495B
S1131FB0002000F05FF98720FFF72CFF0F20FFF7C8
S1131FC029FF8220FFF726FFFF20FFF723FF2220AF
S1131FD0FFF720FF0020FFF71DFF0020FFF71AFF87
S1131FE05F20FFF717FF3F20FFF714FF0020FFF7E4
S1131FF011FF3F20FFF70EFF0020FFF70BFF00202B
S1132000FFF708FF3F20FFF705FF0020FFF702FF5F
S11320100849002000F02EF9002010BD209014542F
S11320202490145434A014543090145400A0145424
S1132030695C0000875C00000269C3689A4204D8A6
S1132040806810180138C01A01E0013AD01A7047AC
S1132050F7B58368C668041C40680191151C9F1B72
S11320608019974203D902F0EBFAAD190AE00199FD
S11320703A1C02F0E5FA019BED1BD91960682A1C91
S113208002F0DEFAE560F7BDF7B5171CC46800225C
S1132090061C019100923369B568A34200D85B190C
S11320A0013B1B1B2D1BBD4200D93D1C9D4200D989
S11320B01D1C73682A1C1819019902F0C1FA009AB0
S11320C0019B52190092B2685B1964190193A31A17
S11320D05A1E93415B421C407F1BF460DBD1009885
S11320E0FEBD000010B5104C104A02232361636149
S11320F00F4BA261A2640F4AE361C8232362E26426
S113210000230422A3626362E362A3656365E3655B
S11321102265E01D084902F0A4FA201C074902F0D8
S1132120A0FA2023A37110BD40010020A75C000089
S11321307800002074000020B05C0000B45C000053
S1132140F7B5204E041C33780191171C002B01D1E4
S1132150FFF7C8FF18235C4348343619F268346922
S113216000920025944216D9B2683D1C131B9F426D
S113217000D91D1C73682A1C1919019802F060FA11
S1132180019A641952190192B2687F1BA31A5A1E4C
S113219093415B421C40009B1B1B0093BB4200D934
S11321A00097009A002A07D073680198191902F061
S11321B047FA009AAD18A418002D00D03461281CE9
S11321C0FEBDC0464001002010B50B1CEFF3108487
S11321D0012181F31088191CFFF7B2FF84F31088E2
S11321E010BD0000F8B5013018256843134D0F1CCD
S11321F02D186E69141C012E0ED0002E06D0022E4E
S113220016D1281CFFF740FF041C14E0281CFFF71C
S113221013FFA0420ED305E0281CFFF70DFF8442F4
S113222000D9041C281C391C221CFFF711FF02E0F2
S1132230002400E0341C201CF8BDC04640010020EE
S1132240F8B50B4B071C1B780E1C151C002B01D179
S1132250FFF748FFEFF31084012181F31088381C45
S1132260311C2A1CFFF7BEFF84F31088F8BDC0465A
S11322704001002038B5051C081C0C1C02F0F9F9BB
S1132280211C021C281CFFF7DBFF38BD13B56C466C
S113229007340020211C0122FFF796FF012801D1F9
S11322A0207801E00120404216BD08B5FFF7EEFF9B
S11322B00028FBDB08BD0000F7B5164C019323781A
S11322C0051C0F1C161C002B01D1FFF70BFF226904
S11322D095421CD2EFF31080012181F31088002D68
S11322E00CD018236A1C5A436B43A750A21856609B
S11322F0019AE3181A6200229A625A6218235D4313
S1132300089B6419E36280F31088002001E0012037
S11323104042FEBD40010020826810B5041C4068A4
S1132320531C834205D820688154A360E3680133B9
S1132330E360A26863689A420CD120692168FFF7C0
S11323407FFFA368984203D001235B42E36001E06E
S11323500023A36010BD0000F0B585B00A9C051CE5
S1132360009101921F1C081C0126019A904204D37B
S11323700199FEF7DBF80136F7E70296BE4200D278
S113238002970B9A01231A40039219D1002C01D110
S1132390002415E00B9B20269B070ED53026002F2A
S11323A00BD0202609E0281C311CFFF7B5FFEA6892
S11323B0013C002A04DB002CEAD0029BA342F2D3A6
S11323C0EA680126002A34DB012F01D9013F06E027
S11323D00098311CFEF7AAF8019B984208D3019A91
S11323E05643F1E7301C0199FEF7A0F8061E10D001
S11323F00098311CFEF79AF8331C4343009AD21A12
S11324000D4B0092195C281CFFF786FFEB68002B2C
S1132410E8DA039A002A0CD0002C0AD0029AA242CD
S113242007D2281C2021FFF777FFEB68013C002B23
S1132430F2DA05B0F0BDC046BB5C0000F0B59DB05B
S11324400CAB07934023089300230590161C0993B3
S11324500B900A930B784C1C002B04D10A9B002B85
S113246000DD04E10EE1252B00D0F6E00231002569
S11324704F1E3B782B2B0CD003D8232B0DD10823D4
S113248008E02D2B03D0302B07D1022302E00123D7
S113249000E004231D430131EAE700243B781A1CC1
S11324A0303A092A05D80A225443303C0137E4184B
S11324B0F4E7002102912E2B0DD101373B781A1C31
S11324C0303A092A07D802990A224A43303AD218E4
S11324D001370292F2E7397804230A1C9A43682AE6
S11324E001D10137F7E7642925D008D8582900D14C
S11324F093E063291AD0252900D0ACE0A8E0732921
S113250000D193E00DD8702900D0A4E0336807A867
S11325101A1D1968326008230022019200931022C8
S113252093E075296FD0782977D094E033681A1D29
S1132530326019788CE033681A1D1B683260D91731
S113254058180122049348400392092806DD0A2101
S1132550FEF73AF8039B01330393F6E70399029AD3
S1132560914200D20392002C05D0049B002B01DB86
S1132570690700D5013CAA0702D5029B002B10D0A5
S1132580E9070ED4002C01D100240AE0039AA242E8
S113259007D207A82021FFF7BFFE0A9B013C002BAE
S11325A0F0DA0A9B002B56DB0499002904DA49422D
S11325B0049107A82D2103E06A0703D507A82B215E
S11325C0FFF7AAFE0A9B002B45DB03232B40022BBB
S11325D011D1029900290ED1002C01D100240AE066
S11325E0039AA24207D207A83021FFF795FE0A9B5F
S11325F0013C002BF0DA0A9B002B2CDB00940195A4
S113260007A8049906E0336807A81A1D1968326000
S1132610009401950A22029B17E0336807A81A1D4B
S113262019683260009401951022F4E733681A1D8A
S113263032601C682178013400290CD007A8FFF708
S11326406BFE0A990029F5DA05E0FFF785FE02E042
S113265007A8FFF761FE7C1C03E007A8191CFFF71D
S11326605BFE0A9A002A00DAF8E6211CF2E6099ACF
S1132670002A03D005980CA9FFF7E2FD0A99099AEC
S11326808B180A930A981DB0F0BD0EB403B503ABC2
S113269004CB111C01AA0193FFF7D0FE02B008BCC1
S11326A003B0184708B5002000F076FD08BD08B552
S11326B0002001F0EDFB08BD10B5174B08229978F6
S11326C0114202D099780A439A70144B882100224F
S11326D049015A50124922200870124980204002B0
S11326E058501868104901401960104910485C5846
S11326F02040C024A404204358500E4B80211A7259
S1132700197601211A7059700B490A7099790C22B3
S11327101142FBD110BDC04600D0074000700440F8
S113272000E0074044100000FFFFF3FF0410000026
S1132730FFFFFFF00040064000500640154B1649CD
S113274030B51A1E8A420CD0144C0023A408A342AC
S113275004D098000D5801331550F8E7104B9A60D7
S113276001E00F4A93600F4A0F490023891A8B42F4
S113277004D0D45C0D48C4540133F8E70C4A0D4925
S11327800023891A8B4204D0D0180024047001332A
S1132790F8E730BD00000000000000000000000069
S11327A000ED00E0245E0000CC5F000000FEFF1F8F
S11327B0A8FFFF1F50020020031C41700020187066
S11327C058609860704710B54378041C0120FF2BB3
S11327D008D000F05BFA63780133DBB2637000F079
S11327E049FA002010BD0020704738B5041C0D1CA8
S11327F000F04CFAE3681D43E56000F03BFA00206A
S113280038BD00000A4B00229A641A1C40329A63B5
S11328101A1C30329A621A1C20329A611A1C103225
S11328209A60044A1360044B9B60DB607047C046A7
S1132830CC010020C8010020B8010020024B002276
S11328401A60186880B270470C007C5070B54378E9
S1132850041C0E1C002B0AD000F018FA6378002523
S1132860013BDBB26370257000F004FA29E0022515
S1132870002926D00378002B16D0FFF7DFFF63680A
S1132880A268984201D3C31A03E08021C31A490203
S11328905B1803259A4214D200F0F8F90023237040
S11328A000F0E8F902250CE003254B1C09D000F0E8
S11328B0EDF90123237000F0DDF9FFF7BFFFA660F7
S11328C06060281C70BD38B5051CFFF7B7FF041CF9
S11328D0FFF7B4FF031BA04203D28022001B520265
S11328E083189D42F4D238BD08B5012801D100F007
S11328F0CDF908BD08B5012801D100F0BBF908BD28
S113290010B5FFF77FFF094A012313600849094AFC
S11329100020094C1060086004212160074C2160EC
S113292007490B6007490860136010BD38800450E4
S113293000008450000004500000045104000451BD
S113294004000C500000045310B5044C20602171A5
S11329500020A2602373637310BDC0461C020020D4
S1132960F0B585B003AD374C0090019128706970C3
S11329702379009904208B4261D9237B0026637359
S11329800123AB70371C237BBB4215D9A268BB0063
S11329909B58002B0DD01A79D1070AD59968281CA9
S11329A01B689847002804D0019A67730526002AFB
S11329B032D00137FFB2E6E7002E02D0019B012B93
S11329C02AD10120FFF790FF00990C204843226888
S11329D00027101800F0A2F8009B01206371FFF794
S11329E089FF0223AB70237BBB4225D9A168BB00BE
S11329F05B58002B0DD01A7991070AD59968281CC9
S1132A001B689847002804D0019A6773002A15D0E0
S1132A1006260137FFB2E6E70023AB70013FFFB2A1
S1132A20FF2F09D0A168BB005B58002BF6D0996832
S1132A30281C1B689847F1E7301C00E0062005B00D
S1132A40F0BDC0461C020020014B58797047C046B7
S1132A501C02002013B503780021041C0191022BF1
S1132A6007D0032B0BD0012B0ED10279191C13486C
S1132A7001E00279114801AB00F0D8FF08E001A998
S1132A800E4801F015F803E00C4801A900F0B2FF6C
S1132A90002812D1A2790A4BD201D2B21A706278FC
S1132AA0084B5200D2B21A70A278074B1A70E2781F
S1132AB0064B1A706279064B1A7016BD0040064028
S1132AC0184086530040865000400650014006508E
S1132AD0184016501F2303408022DB0552051A4379
S1132AE0044943099B005B18101C1843002303602E
S1132AF07047C046288004401F2303408021DA0524
S1132B00490511434209044892001218081C104355
S1132B1001229A40026070472880044073B5124D28
S1132B2000220723041C0093281C131C012101F01C
S1132B309FF9201CFFF78EFF637A0022217A00930D
S1132B40281C131C01F094F9E279084B92041A60D2
S1132B50074BA17A1D68281C00F0C6FF281CE17AE7
S1132B6000F0C9FF002076BD0070044000700C59CD
S1132B70185D000008B5054800F0FCFE044B196818
S1132B80C9B20131FDF7D2FC08BDC0460040064081
S1132B9044801C5E08B5054800F0ECFE044B19683F
S1132BA0C9B20131FDF7C2FC08BDC0460040064071
S1132BB044801C5E08B5054800F0DCFE044B19682F
S1132BC0C9B20131FDF7B2FC08BDC0460040064061
S1132BD04480145808B5054800F0CCFE044B19682D
S1132BE0C9B20131FDF7A2FC08BDC0460040064051
S1132BF0448014580C4B1868C0B202280FD0032824
S1132C0002D000280ED102E0FA2080000BE0074B2E
S1132C1080221B681202934205D1181C03E0044B66
S1132C20186800E00020704700700C59440200202E
S1132C304802002008B5FFF7DDFF08BD08B5024BC8
S1132C40185CFFF759FF08BDCB5C000008B576207F
S1132C50FFF752FF08BD08B57620FFF73BFF08BD1C
S1132C6008B56620FFF748FF08BD08B56620FFF7E2
S1132C7031FF08BD044A1368002B04D0013B1360E4
S1132C80002B00D162B670472C02002072B6024BB2
S1132C901A6801321A6070472C02002010B50B4BE1
S1132CA00B4A1278002A04D1013B002BF8D10320EF
S1132CB00AE0064C074801F075FB012803D0013CEB
S1132CC0002CF7D1F3E7002010BDC046EA03000052
S1132CD002D0075100E0074010B5064C064801F049
S1132CE061FB042804D0013C002CF7D1032000E050
S1132CF0002010BDEA03000000E00740F7B5071C00
S1132D000E1C151C01930120002F15D0002913D08F
S1132D10FFF7EAFD094C0021201C102201F099FC68
S1132D2027602671002D03D0019BA5602373637374
S1132D300120FFF7DFFD0020FEBDC0463002002069
S1132D40F0B5B24F8BB0019002913B7B01207B73B5
S1132D50FFF7CAFD3B7901998B4204D80120FFF7A4
S1132D60C9FD022050E1019A396893005E58019B25
S1132D70357807AC029A2370291C022399432272E6
S1132D8066600391012901D0052D0AD1A0480121D3
S1132D9001F05AFA002809D10120FFF7ABFD012008
S1132DA032E1072D02D99A480321F1E70123637226
S1132DB0002400943B7B00998B4219D9009AB9688E
S1132DC093005B58002B0ED01A79D1070BD5996864
S1132DD007A81B689847002805D0009A029B7A73BD
S1132DE00424012B04D1009B0133DBB20093E1E7FF
S1132DF00120FFF77FFD874800F0E0FD039A012AD8
S1132E001AD10138C0B2022800D9D4E0FFF7E2FE9B
S1132E10814B984200D9CEE0FFF7ACFE7F4FB84219
S1132E2000D9C8E0FFF7C6FEB84200D9C3E0FFF7F7
S1132E30B1FEB84200D9BEE0029A012A00D0DFE018
S1132E4003200A2D00D9DFE0281CFDF765FB0608E6
S1132E500A1B4E6441472C363B0000225CE00322EF
S1132E605AE06B4801F09EFA012809D06848002115
S1132E7001F0FAF9FFF712FF041C002C00D0C3E0A4
S1132E80012249E0624801F08DFA042809D0604823
S1132E90022101F0E9F9FFF71FFF041C002C00D008
S1132EA0B2E0042238E005AB07221A7000225A70FF
S1132EB0F2789A703279DA7030E0072205AB1A7032
S1132EC0012203E0072205AB1A7003225A7025E0A1
S1132ED005AB02221A7001221A7104E005AB02222A
S1132EE001211A7019715A7118E005AB02221A7087
S1132EF00027012246481A715F7101F053FA012834
S1132F000CD04348391C01F0AFF9FFF7C7FE041C8D
S1132F10BC4203D078E0052205AB1A702B1C083B99
S1132F2005A9022B03D873798B71B379CB717378AC
S1132F30002B0DD0012D0BD9B0780222384B00287C
S1132F4002D01869024302E018699043021C1A6116
S1132F502F4801F0ADF9002800D00324002D05D13D
S1132F60FFF79CFE0024002805D04DE0012D02D17E
S1132F70FFF7B2FEF6E70120FFF7B6FC019B234EF4
S1132F8007AFB37302237B720025337BAB4222D994
S1132F90B168AB005B58002B0AD01A79910707D5AA
S1132FA09968381C1B689847002801D0757305245C
S1132FB00135EDB2E9E7029B012B11D0002C0FD0B3
S1132FC00120FFF791FC07AE0023009D7372013DC1
S1132FD0EDB2FF2D06D10120FFF78CFC201C13E07D
S1132FE00624EDE7094BAA009B68D358002BEED0CA
S1132FF01A79D107EBD59968301C1B689847E6E726
S1133000002C00D11CE7DBE70BB0F0BD3002002040
S113301000E007400040064040420F0080841E004C
S113302000ED00E008B5064801F0BCF9012804D021
S11330300123042802D00B2300E00023181C08BD40
S113304000E007400368F7B51D0AFF2635401B4A18
S11330501E40AB009F581A4A041C9A58281C01921F
S1133060FFF7ECFD311C0022381C01F0A3F9019B91
S1133070B6009E19227984235B05334352001A60FB
S1133080802362795B0533431A60A27990235B0540
S1133090334312011A60E3790A4A16431A04326070
S11330A0002B0AD0084B5B5D002B06D01F22134077
S11330B001229A40131C054A1360F7BD245D0000E9
S11330C01C5D0000000018182C5D000000E100E009
S11330D0F8B50368041CFF25180A2840104A1D404F
S11330E083009E580F4A9F58FFF7A8FD301C291CE7
S11330F0012201F05FF9301C291C626801F06AF9B1
S1133100AD00227A88237D195B052B4392001A6057
S113311098235B051D43637A9B012B60F8BDC04671
S1133120245D00001C5D000038B50C1C002802D191
S1133130002C09D112E003680133F9D0051C0835CD
S1133140FFF780FF281CF6E72368013306D0251C0F
S1133150201C0C35FFF7BCFF2C1CF5E738BD000024
S1133160010AFF231940044A890003408A580120B8
S1133170984050607047C046245D0000010AFF2358
S11331801940044A890003408A58012098409060FD
S11331907047C046245D000008B5084B8200D25831
S11331A0942302325B0513431B78002B02D000F0FA
S11331B04BFA01E000F0A0FA08BDC046D05C000064
S11331C0021C80230C325B0513431B78002BF7D0C1
S11331D00171704738B5094B8000C4580D1C201C80
S11331E01830291CFFF732FB0328F8D0002801D03F
S11331F004232374207CC0B238BDC04640020020A2
S1133200F0B589B005930EAB0290161C1A788300B2
S113321035488D0A18581E3D01903448CFB21C58C9
S1133220002007AB18800123A07CE374A3745342ED
S11332305341DBB203936B425D41EDB20490002D28
S113324002D00F0AC9B28C467F000023FFB29D4210
S113325004D12B1C002E01D1039AD3B21F4307AB18
S11332601F700122002D02D0604658700222A36014
S1133270E2600198391CFFF7A3FF02980F99FFF74A
S1133280A9FF237C002B0CD1002E0AD0059AA6603E
S1133290E26031780198FFF793FF02980F99FFF7E6
S11332A099FF237C002B16D1039B002B13D0002DF8
S11332B001D1002E0FD000230125A3600198E56001
S11332C001F0DCF8291C39430198FFF779FF0298D3
S11332D00F99FFF77FFF04980023A074207CE37408
S11332E0C0B209B0F0BDC046D05C0000400200206E
S11332F0104A830010B598580F4A9C58E37C002B61
S113330005D0237C052B02D0237C042B09D19823E0
S1133310821C5B05134300221A7001F0C1F80123DB
S11333206374A37C002B03D0201C1830FFF74BFAE6
S113333010BDC046D05C000040020020F7B5194B18
S11333408200D358061C0193174B0D1CD7580092CA
S11333500124002F24D12422081C391C01F079F9FE
S1133360281C391C1830FFF727FA301CFFF778FCAB
S1133370019801F037F8009A0B4BD5500B4B9A5D2E
S11333801F231A40231C93401A1C094B1A60019AEC
S11333909C2302325B05134380226C741A703C1C1C
S11333A0201CFEBDD05C000040020020CD5C00006B
S11333B000E100E0F7B50F4E8400A3590027019304
S11333C00D4B051CE2589C2302325B0513431F700E
S11333D0FFF74BFC094B01985A5D1F231A40012348
S11333E093401A1C064B1830DA67FFF7FCF9A75113
S11333F0F7BDC04640020020D05C0000CD5C000058
S113340004E100E00A4A830070B59E58094A0C1C86
S11334109D584A686B699A4209D0FFF7CBFB6268F2
S1133420011C0023301C00F0EBFF64686C6170BD6C
S1133430D05C000040020020F0B587B005930FABCC
S11334401B780492334A029383009E58324A0391B4
S11334509C58071C637C002B02D10320207456E087
S1133460029B002B01D11E230E930023E360A36073
S1133470237423606374029B381CA3740399FFF7BD
S1133480C1FF9022B31C52051A43102111709825D4
S11334908422F11C52056D050A431D430221402379
S11334A01170301C2B7000F0E9FF039B381C198845
S11334B0012300930E9B049A0193059BFFF7A0FE42
S11334C00D9B002B16D0237C002B10D10C9B301CA1
S11334D0A3600D9BE3600C9B1978FFF771FE029BC0
S11334E0002B12D0381C0E99FFF774FE0DE0237CDC
S11334F0042B0AD100232B70F37801255B092B429E
S113350002D0301C00F0CCFF6574207CC0B207B040
S1133510F0BDC046D05C000040020020F0B58BB086
S1133520099313AB1B780892384A049383009D587F
S1133530374A07919C58061C637C002B02D1032058
S1133540207461E00499002901D11E221292109B7B
S11335501199049A002761602360E760A2742774BC
S1133560301C0799A7606774FFF74CFFAB1C0393EB
S1133570039990235B05194310230B708423EA1CE1
S11335805B05134302221A70039A98235B051A43BE
S113359040231370281C0591069200F06FFF079BCF
S11335A0129A1988301C0192099B0097089AFFF718
S11335B027FE237CDBB2BB4216D105998C220B700B
S11335C011995205012903D1039B1A43082301E0F1
S11335D003990A431370049A2B79002A12D0301CE1
S11335E01299FFF7F7FD0DE0237C042B0AD1069B0B
S11335F001261F70EB785B09334202D0281C00F0CF
S11336004FFF6674207CC0B20BB0F0BDD05C0000EC
S1133610400200201FB5069C0094079C0194089C5E
S1133620029401240394FFF707FF04B010BD1FB5F3
S1133630069C0094079C0194089C02940124039422
S1133640FFF76CFF04B010BD254A830070B59D5888
S11336508422E91C52050A4302211170214A9C5814
S113366090226B1852051A431278E978D2B28E066A
S113367034D5942149051943097800292ED0012A0B
S113368015D1EB78134202D0052323740CE0E368D0
S1133690013BE360002B07D0A368281C5A1CA260DE
S11336A05978FFF78DFD19E0FFF722FE16E06268F6
S11336B0013A6260002A06D08C214905012A05D10D
S11336C00B43082204E0FFF713FE02E00B43002241
S11336D01A7023685A1C22602A791A7070BDC04679
S11336E0D05C000040020020C31C84204005184325
S11336F00223037070470000F0B5904B8100CD5851
S11337009022EB7889B05205DBB2071C0593101C9C
S1133710AB1D1843EE7884460078EC1CC0B20790C9
S113372094204005184300780494F6B2441EA04146
S1133730834C0696982676050C59A91CC0B23343CF
S113374000911143029018780A78C0B2D2B2039261
S1133750029A0191002A30D0079900290DD0102334
S113376062461370281CFFF7BFFF236B002B00D1A8
S1133770E1E0F8B2626B0121D9E000281DD04022BB
S11337801A70281CFFF7B0FF231C2C331B78002B66
S113379002D1009806433370236B002B03D0F8B298
S11337A08021626B9847E37D002B04D0201C1830E5
S11337B08021FFF71AF80A23BCE0069901228E1132
S11337C0281C1640FFF790FF0598012103110B42B6
S11337D019D0049A90235B05134310221A70002E0B
S11337E004D0EB785B07DB0F10D11AE008232370B9
S11337F02C342378002B00D09DE09822009C5205A5
S11338002243137097E0002E16D0EAE701981023A4
S11338100370236B002B6BD0F8B20221626B9847C4
S113382066E001990B70236B002B03D0F8B2626B36
S1133830042198472B797EE0039A012A26D1EB785C
S1133840134255D0019B1E702B79231C2C331B78FB
S1133850002B07D10298002804D1982300995B0516
S11338600B431870236B002B03D0F8B20821626B52
S11338709847A37D002B04D0201C18300821FEF7A4
S1133880B4FF00236360E360237554E02B79A268DE
S1133890DBB2002A2AD02269137023690133236121
S11338A0A368013BA360A368002B44D1029B002BB7
S11338B012D1231C2C331B78002B05D1982300989C
S11338C05B05029903431970E37D002B04D0201C8F
S11338D018302021FEF789FF002363752361236BD1
S11338E0002B28D0F8B2626B202120E0072321E0CE
S11338F06368002B1DD0E2681378291C80220C31E8
S113390052050A431278002AF7D02B71E368013379
S1133910E3606368013B63606368002B0BD1E36081
S11339202375236B002B06D0626BF8B210219847E5
S113393001E00623237009B0F0BDC046D05C00004E
S11339404002002084235B0503431A7800239A4233
S113395009D080235B05013018430378012B01D182
S1133960024B00E0024B181C7047C04600127A005C
S113397080841E0010B50D4A831D13431B78041C5C
S1133980DBB2002B0FD0012B07D1FFF7DBFF084B75
S113399008341C432378D84006E00020022B03D1CE
S11339A0044B186800E0044810BDC046000008112C
S11339B00000901044020020006CDC020C4A831DBD
S11339C013431B78DBB2012B08D0002B04D0032057
S11339D0022B0CD005200AE0181C08E080235B05AC
S11339E0013018430078431E98410223181A704787
S11339F0000008119C22031C520518300243802049
S1133A001070074A00201A43107006489A1D02439A
S1133A101078C0B20028F8D1034B0B607047C04641
S1133A200000081300000811006CDC02F8B5041C47
S1133A300D1C171C1E1CFFF7C1FF012802D1002D0D
S1133A4004D007E0022805D1012D03D1201C311C2C
S1133A50FFF7D0FF8023621C5B0513431D70842392
S1133A605B05234302221A700C4A231C08331343B8
S1133A707A00D2B21A700A4B402223431A70094AC0
S1133A80A31D13431B78012BF9D1002D01D1064B43
S1133A9000E0064B3B4133600020F8BD000090106D
S1133AA0000008130000081180841E0000127A0030
S1133AB00A4A10B51468031C0120002C0CD00848D5
S1133AC0802418430470074C981D20430078022872
S1133AD0F9D1126800200A6010BDC04644020020DB
S1133AE000000813000008119C235B05C90118435A
S1133AF0C9B20170704794235B0549011843C9B2E8
S1133B000170704770B506680C1C301C2049FCF726
S1133B100DFD1F49051C301CFCF74CFD0E1C081C38
S1133B20E1210901FCF702FDE121E0800901301CDB
S1133B30FCF740FD0E1C081C3C21FCF7F7FC3C2163
S1133B402081301CFCF736FD124BA17223806E23BA
S1133B50FF3322889D4209D9013292B2ED1A032320
S1133B6022801A40534253416E33F1E7930701D048
S1133B70094900E009490123CA5C954201D86380E0
S1133B8003E00133AD1A0D2BF6D1A58070BDC046FC
S1133B9080510100B2070000FB5C0000EE5C0000F5
S1133BA030B511490488031C62180020812A19D8F1
S1133BB05A88511E0B2915D899884D1E1E2D11D8CF
S1133BC0DD88172D0ED81D893B2D0BD89B7A3B2BF6
S1133BD008D8A30701D0054B00E0054B9B5C8B4242
S1133BE04041C0B230BDC0464EF8FFFFFB5C000050
S1133BF0EE5C000070B5124A85880388AD186E2209
S1133C00FF325A434488AA189D0852190D4D660084
S1133C10755B52199D0702D1022C00D8013A0A6043
S1133C20C488E1220389120162433C246343D3180C
S1133C30827A08689B18044A42439B180B6070BD43
S1133C404A05F5FFD45C000080510100084B1A6856
S1133C5080231B029A420AD1031CA0201033400582
S1133C6018430368002B02D180235B000360704774
S1133C704402002010B58022041C52051034002395
S1133C8014430121216023604360016090211C30B2
S1133C90490501430B608821490501430B608421D8
S1133CA04905014310430B60036010BD021C9023BF
S1133CB014325B05134300221A6042601022016033
S1133CC01A6070470068086070470000114B82005A
S1133CD070B5D558104B802292051A60041C281C1C
S1133CE0FFF7C8FF281CFFF7B1FF0C4B0C4E195D02
S1133CF001251F221140345D2B1C8B40191C2240CE
S1133D00084BC020A840954019501D5019601D60F3
S1133D1070BDC0460C5D00003C80845E095D0000FF
S1133D20085D000000E100E0F7B5124B8000C758C1
S1133D300025081C0E1C0195FFF732FF041EAC423F
S1133D4016D001A9301CFFF755FF281CFEF772FF9F
S1133D50011C80200002814206D0FCF7E7FB011C15
S1133D600198FCF7E3FB0190381C0199FFF79EFFD3
S1133D70201CFEBD0C5D0000F7B5134B8000C55838
S1133D800024281C0E1C01A90194FFF79BFF201C92
S1133D90FEF750FF041C8020000284420ED00B4B1F
S1133DA0211C04351D43FCF7C1FB2D68019F211C18
S1133DB04743A8B2FCF7BAFB3F180197311C01A88E
S1133DC0FFF7A0FEF7BDC0460C5D000000007810B0
S1133DD0F0B5194B800085B0C5580026081C0F1C8F
S1133DE001920396FFF7DCFE041EB44201D10024C5
S1133DF01EE0381C03A9FFF7FDFE301C2F68FEF7F8
S1133E0019FF011C80200002814206D0FCF78EFBC2
S1133E10011C0398FCF78AFB0390039BBB42E6D387
S1133E20AB60019A88235B051C351D4393002B600E
S1133E30201C05B0F0BDC0460C5D0000044B8000A2
S1133E40C25888231C325B051343890019607047EC
S1133E500C5D0000054B8000C258882314325B05BA
S1133E6013431868431E9841C0B270470C5D0000AC
S1133E706B461A78E023DB0212041A400B07111C6C
S1133E801943024BC01801607047C046441000003B
S1133E9008B5084B8200D258902303325B051343C4
S1133EA01B78002B02D000F015F901E000F07CF93A
S1133EB008BDC046145D00000C4A08B580000C4BD8
S1133EC08158C3589C2003314005002208431A71CD
S1133ED002709420400501430A701A7F002A03D01F
S1133EE0181C2030FEF76FFC08BDC046145D0000AE
S1133EF04C0200201C4BF7B53022061C0C1C87001A
S1133F00081C0021FD5800F0A4FB301CFEF79EFEA7
S1133F10FEF750FE2060281C00F0DFFA201C002170
S1133F202030FEF749FC9023EA1C5B051343019201
S1133F3010221A70281C032100F00FFB281C0021FA
S1133F4000F031FB094BFC50094B9A5D1F231A40CA
S1133F50012393401A1C074B1A60019A98235B05AE
S1133F60134340221A70F7BD145D00004C02002078
S1133F70105D000000E100E0F8B50D4E84000D4B2B
S1133F80A759051CE05800F0A8FA381C2030FEF7A9
S1133F902AFC094B281C5A5D1F231A400123934015
S1133FA01A1C064BDA67FEF756FE0023A351F8BD30
S1133FB04C020020145D0000105D000004E100E0EC
S1133FC00A4B800070B5C558094B0C1CC358161C0D
S1133FD0281C1A68096800F087FA30602179281CC7
S1133FE06279A37900F0CCFA70BDC046145D00007C
S1133FF04C020020F7B51F4A83009C581E4A061C39
S11340009D5822790420002A33D1002903D0301C82
S113401001AAFFF7D5FF9821EA1C490511430023A3
S113402040200B70087027699F4203D1301CFFF7B2
S113403043FF1DE001212171A36194235B052B4300
S113404019780720002914D0A368002B03D019780D
S11340500133A36000E0191CA9712369013B2361AA
S1134060A3690133A3619C235B051A438023137066
S11340700020FEBD4C020020145D0000F8B5134C76
S11340808600134F3459069DF65901272777A260FD
S11340902561E3606561FFF7ADFF051E14D1201CA7
S11340A020300799FEF7D2FB0328F8D000280BD064
S11340B09C22033652050023324323711370942249
S11340C05205164333700325281CF8BD4C0200200A
S11340D0145D000010B51F4B8200D3581E4952587E
S11340E01979002934D05969002911D09C21490536
S11340F01143097800290BD09479D968E4B20029D6
S113410003D00C70D9680131D960596901395961FA
S11341101969002914D0942149051143097800290B
S11341200ED09968002903D00C780131996000E021
S11341300C1C94711A69013A1A619A6901329A61E4
S11341401A69002A04D15B69002B01D1FFF7B4FE80
S113415010BDC0464C020020145D000008B5104B91
S11341608000C3580F4A81580022581CC2779C20F3
S1134170033140050843DA621A701A835A629A625C
S11341801A6302709420400501430A701A1C3832E5
S11341901278002A03D0181D0121FEF726FB08BD62
S11341A04C020020145D000038B5254B8200D35822
S11341B024495258591CC97F00293FD0D96A002983
S11341C016DB9421490511430978002910D0596A56
S11341D01C7F002905D0DD6A002D02DD0C78013139
S11341E059629471D96A0139D962596B01315963A1
S11341F0D96A002905DA9421D41C490521430024F5
S11342000C70196B002911DD9C21490511430978B3
S113421000290BD091799A6AC9B2002A03D011708F
S11342209A6A01329A621A6B013A1A63DA6A002AAC
S113423004DC1B6B002B01DCFFF790FF38BDC0468C
S11342404C020020145D0000012903D0032909D188
S1134250842300E094235B0518430078431E9841AF
S1134260C0B200E000207047034B013049011843FD
S1134270C9B201707047C0460000881294235B05E0
S1134280023049011843C9B201707047034B023030
S113429089011843C9B201707047C0460000081371
S11342A08C235B050230C9001843C9B20170704702
S11342B0F7B5384EC21C164332780B78041C0D1C1B
S11342C0D2B20120072B63D8181CFCF725F9041976
S11342D02A0D192A2A3A304B01341C430023237037
S11342E03378012BFCD152E00320012A50D12A4B10
S11342F001341C43402323703378042BFCD146E063
S11343000021012B01D004230221327803209A4298
S11343103ED1201CFFF7A8FF204B04211A698A43D1
S113432033E00227BB4207D10B790027BB4203D0FD
S11343304979201CFFF7AAFF194B01341C4327704D
S113434019E0174B621C1A43042111706A78A11CEE
S11343500B431A706B78002B06D1AB78002B03D07B
S1134360E978201CFFF78AFFAB79002B03D0E979A9
S1134370201CFFF795FF33780421DBB20193019BE6
S113438001330193054B1A690A431A6130BF0020B7
S1134390FEBDC046000030100000881200ED00E0B1
S11343A000001010024B033018430078C0B270476D
S11343B00000301014308023012A04D11B058A40E8
S11343C01843111C04E0DB04184301238B40D94338
S11343D00160704701238B40002A01D0436000E054
S11343E0836070470023C222037043708370C370DC
S11343F043718371C371037242728372C3727047D3
S1134400F0B587B00293FA239B005343002701259C
S11344100490059101936D423C1C00970123A34035
S113442003930026144A059893195988039B59430A
S1134430FCF77CF8019A831A824200D9131AAB4222
S113444004D20D4A0094975D1D1E02D00436C82E76
S1134450E8D10134032C01D0002DDFD1029B002BC5
S113446000D01D60009A3F231F4093011F43049B0B
S1134470FFB25F7007B0F0BD2E5D000094230230E0
S11344805B0503431B78002B04D088235B0518438A
S1134490042303E080231B05184330230370704773
S11344A09422831C52051A431278011C0220012A0B
S11344B012D18022D2041343CF221A708023DB004E
S11344C0C8782022024004D0013B002B03D0C04610
S11344D0F6E7101C00E0092070470423C370002392
S11344E08370437003717047F0B589B00692120B64
S11344F0039201260823072207900591002576429E
S113450002930192022700246B1C191C794306981C
S11345100493FCF70BF8059A824206D3131A9E42C1
S113452003D91E1C03900294019501347F00092CC9
S113453001D0002EE8D1072D03D0002E01D0049D18
S1134540E0E7019B03981A0170231340029A134376
S1134550079ADBB2537009B0F0BD8423C21C5B051B
S1134560134301220A405200D2B289071A70C90FBC
S113457090235B05023009011843C9B201707047EA
S113458010B58C2403306405C9000443C9B22170FA
S11345908821490592000143D2B20A708022520553
S11345A01043037010BD802302305B0501220343D6
S11345B00A4089071A70C90F8C235B05C900184388
S11345C0C9B2017070470000084B10B5041C002BE1
S11345D002D0002100E000BF054B1868836A002B5D
S11345E000D09847201C00F04BF8C04600000000A3
S11345F0F85D000070B50E4B0E4D0024ED1AAD10A1
S11346001E1CAC4204D0A300F35898470134F8E7C9
S113461001F0F4FB084B094D0024ED1AAD101E1CEB
S1134620AC4204D0A300F35898470134F8E770BDB6
S11346301C5E00001C5E00001C5E0000205E00008A
S113464010B50023934203D0CC5CC4540133F9E782
S113465010BD031C8218934202D019700133FAE78B
S11346607047031C0A7801311A700133002AF9D10A
S113467070470023C25C0133002AFBD1581E7047E7
S1134680FEE7C0461B5B306D1B5B343B34336D1B54
S11346905B313B33376D0D53616E69747920636808
S11346A065636B206661696C6564211B5B306D0A10
S11346B0001B5B306D1B5B343B34316D1B5B313B4A
S11346C033376D0D496E76616C6964207375707053
S11346D06C7920766F6C74616765205B25645D205E
S11346E06D56211B5B306D0A004D656173757265F3
S11346F06D656E74206E756D6265722C2052544324
S11347002D3E5453522C205254432D3E5450522C7F
S113471000204D4D413834353120782C204D4D4109
S11347203834353120792C204D4D41383435312001
S11347307A2C00205254432D3E5453522C20525470
S1134740432D3E5450522C202320436F6E666967DC
S1134750204572726F72730025752C2025642C20FD
S113476025642C002025642C2025642C2025640A33
S1134770000D09307825303278202D2D3E205B3015
S113478078253032782030782530327820307825FA
S11347903032785D0A000D09307825303278202DCA
S11347A02D3E203078253032780A000D09307825E6
S11347B0303278202D2D3E202D2D2D2D0A000D0A6E
S11347C00925642F256420737563636573732072F0
S11347D06174652E0A000D0925642F256420737504
S11347E063636573736573206D61746368656420C6
S11347F07265662E2076616C7565206F6620307850
S1134800253032782E0A000D092564206261642067
S1134810636F6D6D616E64732E0A0A000D0A09419F
S113482044584C33363220526561642041626F72C1
S11348307465642E204465766963652044697361F8
S1134840626C6564203A28000D0A4D4D41383435B8
S113485031513A0A0D000D0A0A424D4536383020CE
S1134860526561642041626F727465642E204465F0
S1134870766963652044697361626C6564203A28D3
S1134880000D0A09424D58303535616363656C206B
S1134890526561642041626F727465642E204465C0
S11348A0766963652044697361626C6564203A28A3
S11348B020000D0A09424D583035356779726F2052
S11348C0526561642041626F727465642E20446590
S11348D0766963652044697361626C6564203A2873
S11348E020000D0A0920424D583035356D6167208E
S11348F0526561642041626F727465642E20446560
S1134900766963652044697361626C6564203A2842
S113491020000D0A094D4147333131302052656181
S1134920642041626F727465642E20446576696305
S1134930652044697361626C6564203A2820000D27
S11349400A094C334744323048205265616420419F
S1134950626F727465642E204465766963652044D1
S1134960697361626C6564203A2820000D0A094C61
S1134970505332354820526561642041626F72742D
S113498065642E20446576696365204469736162B9
S11349906C6564203A2820000D0A095443533334CB
S11349A037323520526561642041626F72746564E8
S11349B02E204465766963652044697361626C6581
S11349C064203A2820000D0A095349343730352031
S11349D0526561642041626F727465642E2044657F
S11349E0766963652044697361626C6564203A2862
S11349F020000D0A094844433130303020526561AB
S1134A00642041626F727465642E20446576696324
S1134A10652044697361626C6564203A2820000D46
S1134A200A095349373032312052656164204162AA
S1134A306F727465642E20446576696365204469E9
S1134A407361626C6564203A2820000D0A094343AF
S1134A505338313120526561642041626F7274654C
S1134A60642E204465766963652044697361626CD1
S1134A706564203A2820000D0A09414D473838332F
S1134A803420526561642041626F727465642E2023
S1134A904465766963652044697361626C6564206A
S1134AA03A2820000D0A0941533732363220526524
S1134AB061642041626F727465642E204465766976
S1134AC063652044697361626C6564203A28200040
S1134AD00D0A09415337323633205265616420414F
S1134AE0626F727465642E20446576696365204440
S1134AF0697361626C6564203A2820000D09496E6F
S1134B0076616C6964207761727053656E736F723D
S1134B10446576696365205B25645D207061737309
S1134B20656420746F20726570656174526567698D
S1134B307374657252656164466F72446576696325
S1134B4065416E64416464726573732E0A000D09D5
S1134B50506F776572757020636F6D6D616E642040
S1134B606661696C65642E20424D58303535206489
S1134B70697361626C6564200A000D09506F776582
S1134B8072646F776E20636F6D6D616E6420616215
S1134B90616E646F6E65642E20424D583035352049
S1134BA064697361626C65640A000D09506F77650E
S1134BB072646F776E20636F6D6D616E64206162E5
S1134BC0616E646F6E65642E204C33474432304806
S1134BD02064697361626C65640A000D09506F7723
S1134BE06572646F776E20636F6D6D616E642061B2
S1134BF062616E646F6E65642E20544353333437A0
S1134C0032352064697361626C65640A000A0A0AB9
S1134C100D426F6F74696E6720576172702C206942
S1134C206E20332E2E2E2000322E2E2E2000312EDA
S1134C302E2E0A0D000D0A0A0A0A5B202A09090908
S1134C40095709610972097009287265762E206274
S1134C50290909092A205D0A000D5B202009090998
S1134C600920202020202043616D627269646765F9
S1134C70202F2050687973636F6D706C61622020FF
S1134C80200909090920205D0A0A000D09537570DD
S1134C90706C793D25646D562C0944656661756CAC
S1134CA07420546172676574205265616420526592
S1134CB06769737465723D3078253032780A000D67
S1134CC0094932433D25646B622F732C09535049C3
S1134CD03D25646B622F732C09554152543D256464
S1134CE06B622F732C094932432050756C6C2D551F
S1134CF0703D25640A0A000D0953494D2D3E534366
S1134D004743363D30782530327809095254432DD3
S1134D103E53523D30782530327809095254432DA0
S1134D203E5453523D3078253032780A000D094DF7
S1134D3043475F43313D3078253032780909094DC6
S1134D4043475F43323D30782530327809094D437B
S1134D50475F533D3078253032780A000D094D43C2
S1134D60475F53433D3078253032780909094D4374
S1134D70475F4D433D30782530327809094F53431E
S1134D805F43523D3078253032780A000D09534D87
S1134D90435F504D50524F543D307825303278099E
S1134DA00909534D435F504D4354524C3D307825CF
S1134DB030327809095343422D3E5343523D3078F3
S1134DC0253032780A000D09504D435F5245475350
S1134DD0433D30782530327809090953494D5F53F2
S1134DE0434743343D307825303278095254432DBB
S1134DF03E5450523D3078253032780A0A000D096D
S1134E0025647320696E205254432048616E646C9B
S1134E10657220746F2D646174652C0925642050BB
S1134E206D6772204572726F72730A000D53656C60
S1134E306563743A0A000D2D202761273A207365B3
S1134E40742064656661756C742073656E736F722B
S1134E502E0A000D2D202762273A207365742049FD
S1134E603243206261756420726174652E0A000DFC
S1134E702D202763273A20736574205350492062FC
S1134E8061756420726174652E0A000D2D202764FB
S1134E90273A207365742055415254206261756429
S1134EA020726174652E0A000D2D202765273A2093
S1134EB07365742064656661756C742072656769D6
S1134EC07374657220616464726573732E0A000DD5
S1134ED02D202766273A20777269746520627974D9
S1134EE06520746F2073656E736F722E0A000D2D2A
S1134EF0202767273A207365742064656661756CA2
S1134F0074205353535550504C592E0A000D2D20E4
S1134F102768273A20706F776572646F776E206315
S1134F206F6D6D616E6420746F20616C6C207365AD
S1134F306E736F72732E0A000D2D202769273A2095
S1134F407365742070756C6C2D757020656E61626C
S1134F506C652076616C75652E0A000D2D20276A1C
S1134F60273A2072657065617420726561642072ED
S1134F70656720307825303278206F6E2073656E37
S1134F80736F72202325642E0A000D2D20276B27B2
S1134F903A20736C65657020756E74696C20726557
S1134FA07365742E0A000D2D20276C273A20736533
S1134FB06E642072657065617465642062797465DD
S1134FC0206F6E204932432E0A000D2D20276D27B5
S1134FD03A2073656E64207265706561746564203F
S1134FE062797465206F6E205350492E0A000D2D8E
S1134FF020276E273A20656E61626C6520535353F7
S11350005550504C592E0A000D2D20276F273A2059
S113501064697361626C65205353535550504C5905
S11350202E0A000D2D202770273A207377697463A8
S11350306820746F20564C5052206D6F64652E0AA0
S1135040000D2D202772273A207377697463682036
S1135050746F2052554E206D6F64652E0A000D2D1D
S1135060202773273A20706F77657220757020614E
S11350706C6C2073656E736F72732E0A000D2D2095
S11350802774273A2064756D702070726F6365739E
S1135090736F722073746174652E0A000D2D2027BE
S11350A075273A2073657420493243206164647221
S11350B06573732E0A000D2D202778273A20646922
S11350C07361626C652053574420616E6420737071
S11350D0696E20666F7220313020736563732E0A07
S11350E0000D2D20277A273A2064756D7020616C9D
S11350F06C2073656E736F727320646174612E0A21
S1135100000D456E7465722073656C656374696F18
S11351106E3E20000D0953656C6563743A0A000DF8
S1135120092D20273127204144584C3336320909B0
S11351300928307830302D2D30783244293A203106
S11351402E3656202D2D20332E35562028636F6D94
S113515070696C6564206F757429200A000D092D2F
S11351602027322720424D58303535616363656C02
S113517020090928307830302D2D30783346293AEB
S113518020322E3456202D2D20332E3656202863DF
S11351906F6D70696C6564206F757429200A000D49
S11351A0092D2027332720424D5830353567797231
S11351B06F09090928307830302D2D30783346298D
S11351C03A20322E3456202D2D20332E36562028C8
S11351D0636F6D70696C6564206F757429200A00B3
S11351E00D092D2027342720424D583035356D6167
S11351F06709090928307834302D2D307835322963
S11352003A20322E3456202D2D20332E3656202887
S1135210636F6D70696C6564206F757429200A0072
S11352200D092D20273527204D4D41383435315176
S113523009090928307830302D2D30783331293A56
S113524020312E393556202D2D20332E36560A0086
S11352500D092D20273627204C5053323548090993
S11352600928307830382D2D30783234293A2031DD
S11352702E3756202D2D20332E36562028636F6D61
S113528070696C6564206F757429200A000D092DFE
S113529020273727204D4147333131300909092868
S11352A0307830302D2D30783131293A20312E3973
S11352B03556202D2D20332E36562028636F6D70E1
S11352C0696C6564206F757429200A000D092D200E
S11352D02738272048444331303030090909283021
S11352E07830302D2D30783146293A20332E3056FF
S11352F0202D2D20352E30562028636F6D70696C5B
S11353006564206F757429200A000D092D20273942
S11353102720534937303231090909283078303091
S11353202D2D30783046293A20312E3956202D2D16
S113533020332E36562028636F6D70696C656420A7
S11353406F757429200A000D092D20276127204C30
S113535033474432304809090928307830462D2D26
S113536030783339293A20322E3256202D2D2033ED
S11353702E36562028636F6D70696C6564206F75D6
S11353807429200A000D092D2027622720424D454B
S113539036383009090928307841412D2D307846B6
S11353A038293A20312E3656202D2D20332E3656CC
S11353B02028636F6D70696C6564206F7574292093
S11353C00A000D092D202764272054435333343712
S11353D0323509090928307830302D2D30783144A0
S11353E0293A20322E3756202D2D20332E335620A5
S11353F028636F6D70696C6564206F757429200A69
S1135400000D092D202765272053493437303509ED
S11354100909286E2F61293A2020202020202020ED
S1135420322E3756202D2D20352E35562028636FE9
S11354306D70696C6564206F757429200A000D090C
S11354402D202766272050414E3133323609090971
S1135450286E2F61292028636F6D70696C65642044
S11354606F757429200A000D092D20276727204312
S1135470435338313109090928307830302D2D3023
S1135480784646293A20312E3856202D2D20332EA9
S113549036562028636F6D70696C6564206F75746F
S11354A029200A000D092D2027682720414D47385F
S11354B038333409090928307830302D2D3F293A02
S11354C0203F56202D2D203F562028636F6D706994
S11354D06C6564206F757429200A000D092D20273E
S11354E06A27204153373236320909092830783087
S11354F0302D2D30783242293A20322E3756202D45
S11355002D20332E36562028636F6D70696C6564C8
S1135510206F757429200A000D092D20276B272080
S113552041533732363309090928307830302D2D6C
S113553030783242293A20322E3756202D2D20330E
S11355402E36562028636F6D70696C6564206F7504
S11355507429200A000D09456E7465722073656C08
S1135560656374696F6E3E20000D09496E76616C47
S113557069642073656C656374696F6E20272563A5
S11355802720210A000D0A0953657420493243205B
S113559062617564207261746520696E206B62704B
S11355A0732028652E672E2C202730303031272990
S11355B03E20000D0A09493243206261756420725D
S11355C06174652073657420746F202564206B6298
S11355D02F73000D0A0953657420535049206261EA
S11355E07564207261746520696E206B627073202B
S11355F028652E672E2C20273030303127293E2075
S1135600000D0A0953504920626175642072617467
S1135610653A202564206B622F73000D0A095365D7
S1135620742055415254206261756420726174651E
S113563020696E206B6270732028652E672E2C20E3
S1135640273030303127293E20000D0A09554152B8
S113565054206261756420726174653A2025642067
S11356606B622F73000D0A09456E74657220322D2A
S11356706E7962626C652072656769737465722005
S113568068657820616464726573732028652E6789
S11356902E2C2027336527293E20000D0A09456E4C
S11356A07465726564205B3078253032785D2E0A2B
S11356B00A000D0A09456E7465722049324320615F
S11356C06464722E2028652E672E2C2027306627CE
S11356D029206F72202739392720666F7220535092
S11356E049203E20000D0A09456E746572656420E8
S11356F05B3078253032785D2E0A000D0A09456E3C
S113570074657220686578206279746520746F20EE
S113571073656E642028652E672E2C20273066273B
S1135720293E20000D0A0953504920777269746597
S1135730206661696C65642E204144584C333632CE
S11357402044697361626C6564000D0A094932433F
S1135750207772697465206661696C65642C2065C4
S113576072726F722025642E0A0A000D0A094F76A0
S1135770657272696465205353535550504C5920D7
S1135780696E206D562028652E672E2C202731380F
S1135790303027293E20000D0A094F766572726960
S11357A06465205353535550504C592073657420ED
S11357B0746F202564206D56000D0A094E4F544520
S11357C03A20466972737420706F7765722073652E
S11357D06E736F727320616E6420656E61626C65B6
S11357E0204932430A0A000D0A0944656661756C52
S11357F0742070756C6C757020656E61626C6520C8
S113580076616C756520696E206B696C6F4F686D8D
S1135810732028652E672E2C20273030303027291E
S11358203E20000D0A0949326350756C6C75705640
S1135830616C75652073657420746F2025640A009B
S11358400D0A094175746F2D696E6372656D656E1D
S1135850742066726F6D2062617365206164647286
S1135860657373203078253032783F205B273027EA
S1135870207C202731275D3E20000D0A09436875EE
S11358806E6B20726561647320706572206164645C
S1135890726573732028652E672E2C2027312729E3
S11358A03E20000D0A094368617474793F205B2728
S11358B03027207C202731275D3E20000D0A09492E
S11358C06E7465722D6F7065726174696F6E20738A
S11358D070696E2064656C617920696E206D696CF5
S11358E06C697365636F6E64732028652E672E2C54
S11358F020273030303027293E20000D0A09526518
S11359007065746974696F6E732070657220616468
S113591064726573732028652E672E2C202730301F
S1135920303027293E20000D0A094D6178696D75D4
S11359306D20766F6C7461676520666F7220616498
S113594061707469766520737570706C7920286550
S11359502E672E2C20273030303027293E20000D92
S11359600A095265666572656E63652062797465BD
S113597020666F7220636F6D70617269736F6E73EE
S11359802028652E672E2C2027336527293E2000EA
S11359900D0A09526570656174696E6720646576E5
S11359A025642040203078253032782C20726570B0
S11359B0733D25642C2070756C6C3D25642C20642B
S11359C0656C61793D25646D733A0A0A000D0A0914
S11359D0536C656570696E6720756E74696C2073AD
S11359E0797374656D2072657365742E2E2E0A00AA
S11359F00D0A094279746520746F2073656E642002
S1135A0028652E672E2C2027463027293E20000D9E
S1135A100A0952657065746974696F6E732028652C
S1135A202E672E2C20273030303027293E20000DC1
S1135A300A0953656E64696E672025642072657077
S1135A4065746974696F6E73206F66205B307825A6
S1135A503032785D206F6E204932432C20693263E6
S1135A6050756C6C7570456E61626C653D25642C77
S1135A70205353535550504C593D25646D560A0AD2
S1135A80000D0A0953656E64696E672025642072EF
S1135A90657065746974696F6E73206F66205B301E
S1135AA078253032785D206F6E205350492C205376
S1135AB053535550504C593D25646D560A0A000DF8
S1135AC00A0943616E6E6F74207365742049324312
S1135AD020616464726573733A204669727374203A
S1135AE0736574207468652064656661756C7420E0
S1135AF0493243206465766963652E0A000D0A09FC
S1135B005365742049324320616464726573732061
S1135B106F66207468652073656C656374656420C2
S1135B2073656E736F7228652E672E2C20273143A0
S1135B3027293E20000D0A095370696E6E696E674D
S1135B4020666F72203130207365636F6E64732E2C
S1135B502E2E0A000D09446F6E652E0A0A000D0AE6
S1135B6009456E61626C696E672049324320706931
S1135B706E732E2E2E0A000D0A09486578206F7266
S1135B8020636F6E766572746564206D6F64653F23
S1135B902028276827206F7220276327293E2000AA
S1135BA00D0A09536574207468652074696D652055
S1135BB064656C6179206265747765656E206561E2
S1135BC063682072756E20696E206D696C6C6973F0
S1135BD065636F6E64732028652E672E2C20273131
S1135BE032333427293E20000D0A0944656C61795B
S1135BF0206265747765656E2072656164206261F8
S1135C0074636865732073657420746F2025642041
S1135C106D696C6C697365636F6E64732E0A0A0038
S1135C200D095061796C6F616473206D616B65203F
S1135C30726F636B657473206D6F72652074686135
S1135C406E206A7573742066697265776F726B7300
S1135C502E00202D2D2D2D2C00203078253032784B
S1135C60203078253032782C000D0A09446F6E6597
S1135C7020776974682073637265656E20636C6550
S1135C8061722E2E2E0A000D0A09446F6E6520776C
S1135C9069746820647261772072656374616E67E9
S1135CA06C652E2E2E0A005465726D696E616C004F
S1135CB0525454005345474745520030313233342F
S1135CC03536373839414243444546898A0800000D
S1135CD000600640000000001F003B005A007800EE
S1135CE09700B500D400F300110130014E01001FEC
S1135CF01D1F1E1F1E1F1F1E1F1E1F001F1C1F1ED9
S1135D001F1E1F1F1E1F1E1F1514000000D003405E
S1135D100A00000000600740005006400090044064
S1135D2000A0044000F00F4040F00F401E1F000090
S1135D301400010016000200180003001A000400F9
S1135D401C0005001E0009002000060022000A00B5
S1135D502400070028000C002C0010003000110063
S1135D603800120040000F004400130048001400E3
S1135D7050001500580019006000160068001A0051
S1135D807000170080001C0090001D00A0001E0081
S1135D90C0002200E0001F00F000230000012400E6
S1135DA0200125004001260080012A00C0012700AF
S1135DB0E0012B0000022C0040022D0080022E0086
S1135DC00003320080032F00C003330000043400BA
S1135DD0800435000005360000063A00000737004D
S1135DE080073B0000083C0000093D00000A3E001B
S1135DF0000C3F00000F430044FFFF1FF8B5C046EE
S1135E00F8BC08BC9E467047F8B5C046F8BC08BC50
S1075E109E467047EF
S10B5E145CA6FF7F0100000001
S1075E1C3904000041
S1075E201104000065
S1135E240A00000001000000050000000100000059
S1135E3401000000C8000000C80000008D06000036
S1135E4403000000000000001CFEFF1F010100000D
S1135E5401010000FFFFFFFF00000000000000003C
S1135E640100000001000000010000000100000026
S1135E740100000002000000010000000100000015
S1135E8405000000010000000100000008000000FB
S1135E9401000000010000000C00000001000000EB
S1135EA401000000000100000100000001000000E6
S1135EB405010000010000000100000006010000CB
S1135EC401000000010000000701000001000000BF
S1135ED4010000000A0100000100000001000000AC
S1135EE40B01000001000000010000000D0100008E
S1135EF40100000001000000020100000100000094
S1135F040100000003010000010000000100000082
S1135F14040100000100000001000000060000006C
S1135F24010000000100000007000000010000005F
S1135F34010000000900000001000000010000004D
S1135F44FFFFFFFF0000000000000000010100004B
S1135F540000000000010000000000000000010037
S1135F640001000000000000000000000000000028
S1135F740000000000000000000000000000000019
S1135F8400000000F65D00000000000000000000B6
S1135F9400000000000000000000000000000000F9
S1135FA400000000000000000000000000000000E9
S1135FB400000000000000000000000000000000D9
S10B5FC40000000000000000D1
S90304E90F
